{"abi":[{"type":"constructor","inputs":[{"name":"_verifier","type":"address","internalType":"address"}],"stateMutability":"nonpayable"},{"type":"function","name":"commitmentList","inputs":[{"name":"","type":"uint256","internalType":"uint256"}],"outputs":[{"name":"","type":"uint256","internalType":"uint256"}],"stateMutability":"view"},{"type":"function","name":"isShipmentVerified","inputs":[{"name":"commitment","type":"uint256","internalType":"uint256"}],"outputs":[{"name":"","type":"bool","internalType":"bool"}],"stateMutability":"view"},{"type":"function","name":"shipments","inputs":[{"name":"","type":"uint256","internalType":"uint256"}],"outputs":[{"name":"exists","type":"bool","internalType":"bool"},{"name":"isValid","type":"bool","internalType":"bool"},{"name":"minTemp","type":"uint256","internalType":"uint256"},{"name":"maxTemp","type":"uint256","internalType":"uint256"},{"name":"submittedAt","type":"uint256","internalType":"uint256"},{"name":"medicineName","type":"string","internalType":"string"},{"name":"submittedBy","type":"address","internalType":"address"}],"stateMutability":"view"},{"type":"function","name":"submitProof","inputs":[{"name":"_pA","type":"uint256[2]","internalType":"uint256[2]"},{"name":"_pB","type":"uint256[2][2]","internalType":"uint256[2][2]"},{"name":"_pC","type":"uint256[2]","internalType":"uint256[2]"},{"name":"_pubSignals","type":"uint256[3]","internalType":"uint256[3]"},{"name":"medicineName","type":"string","internalType":"string"}],"outputs":[{"name":"isValid","type":"bool","internalType":"bool"}],"stateMutability":"nonpayable"},{"type":"function","name":"totalSubmitted","inputs":[],"outputs":[{"name":"","type":"uint256","internalType":"uint256"}],"stateMutability":"view"},{"type":"function","name":"verifier","inputs":[],"outputs":[{"name":"","type":"address","internalType":"contract Groth16Verifier"}],"stateMutability":"view"},{"type":"event","name":"ProofSubmitted","inputs":[{"name":"commitment","type":"uint256","indexed":true,"internalType":"uint256"},{"name":"isValid","type":"bool","indexed":false,"internalType":"bool"},{"name":"minTemp","type":"uint256","indexed":false,"internalType":"uint256"},{"name":"maxTemp","type":"uint256","indexed":false,"internalType":"uint256"},{"name":"medicineName","type":"string","indexed":false,"internalType":"string"},{"name":"submittedBy","type":"address","indexed":false,"internalType":"address"}],"anonymous":false}],"bytecode":{"object":"0x60a060405234801561000f575f80fd5b506040516108ca3803806108ca83398101604081905261002e9161003f565b6001600160a01b031660805261006c565b5f6020828403121561004f575f80fd5b81516001600160a01b0381168114610065575f80fd5b9392505050565b60805161084061008a5f395f81816098015261021701526108405ff3fe608060405234801561000f575f80fd5b5060043610610060575f3560e01c80632ac08a93146100645780632b7ac3f31461009357806330109a60146100d25780635d6a1b5d146100f5578063d78cfae814610108578063fedbdf3014610129575b5f80fd5b61007761007236600461047d565b610131565b60405161008a9796959493929190610494565b60405180910390f35b6100ba7f000000000000000000000000000000000000000000000000000000000000000081565b6040516001600160a01b03909116815260200161008a565b6100e56100e0366004610537565b6101fe565b604051901515815260200161008a565b6100e561010336600461047d565b610433565b61011b61011636600461047d565b61045e565b60405190815260200161008a565b60015461011b565b5f602081905290815260409020805460018201546002830154600384015460048501805460ff808716976101009097041695919061016e906105f2565b80601f016020809104026020016040519081016040528092919081815260200182805461019a906105f2565b80156101e55780601f106101bc576101008083540402835291602001916101e5565b820191905f5260205f20905b8154815290600101906020018083116101c857829003601f168201915b505050600590930154919250506001600160a01b031687565b6040516308a3cff560e11b81525f906001600160a01b037f000000000000000000000000000000000000000000000000000000000000000016906311479fea90610252908a908a908a908a9060040161062a565b602060405180830381865afa15801561026d573d5f803e3d5ffd5b505050506040513d601f19601f820116820180604052508101906102919190610675565b6040808601355f818152602081905291909120549192509060ff166102e4576001805480820182555f919091527fb10e2d527612073b26eecdfd717e6a320cf44b4afac2b0732d9fcbe2b7fa0cf6018190555b6040805160e081018252600181528315156020808301919091528735828401528781013560608301524260808301528251601f8701829004820281018201909352858352909160a083019187908790819084018382808284375f92018290525093855250503360209384015250838152808252604090819020835181549385015161ffff1990941690151561ff00191617610100931515939093029290921782558201516001820155606082015160028201556080820151600382015560a082015160048201906103b590826106f6565b5060c09190910151600590910180546001600160a01b0319166001600160a01b0390921691909117905560405181907fd713625878ef420b383e1664301f690c15f545c156e7d1d15e4b621032407edf9061042090859089359060208b0135908a908a9033906107b2565b60405180910390a2509695505050505050565b5f818152602081905260408120805460ff16801561045757508054610100900460ff165b9392505050565b6001818154811061046d575f80fd5b5f91825260209091200154905081565b5f6020828403121561048d575f80fd5b5035919050565b87151581525f60208815158184015287604084015286606084015285608084015260e060a084015284518060e08501525f5b818110156104e357868101830151858201610100015282016104c6565b5061010091505f82828601015281601f19601f8301168501019250505061051560c08301846001600160a01b03169052565b98975050505050505050565b8060408101831015610531575f80fd5b92915050565b5f805f805f80610180878903121561054d575f80fd5b6105578888610521565b955060c0870188811115610569575f80fd5b6040880195506105798982610521565b94505061016087018881111561058d575f80fd5b610100880193503567ffffffffffffffff808211156105aa575f80fd5b818901915089601f8301126105bd575f80fd5b8135818111156105cb575f80fd5b8a60208285010111156105dc575f80fd5b6020830194508093505050509295509295509295565b600181811c9082168061060657607f821691505b60208210810361062457634e487b7160e01b5f52602260045260245ffd5b50919050565b6101608101604080878437808301865f5b60028110156106585783828437918301919083019060010161063b565b505050808560c08501375060608361010084013795945050505050565b5f60208284031215610685575f80fd5b81518015158114610457575f80fd5b634e487b7160e01b5f52604160045260245ffd5b601f8211156106f1575f81815260208120601f850160051c810160208610156106ce5750805b601f850160051c820191505b818110156106ed578281556001016106da565b5050505b505050565b815167ffffffffffffffff81111561071057610710610694565b6107248161071e84546105f2565b846106a8565b602080601f831160018114610757575f84156107405750858301515b5f19600386901b1c1916600185901b1785556106ed565b5f85815260208120601f198616915b8281101561078557888601518255948401946001909101908401610766565b50858210156107a257878501515f19600388901b60f8161c191681555b5050505050600190811b01905550565b861515815285602082015284604082015260a060608201528260a0820152828460c08301375f81840160c0908101919091526001600160a01b03929092166080820152601f909201601f19169091010194935050505056fea2646970667358221220ec9b6ca591128910c292464b2af65c447dd6dc8d761a17d2037efd331172239e64736f6c63430008140033","linkReferences":{}},"methodIdentifiers":{"commitmentList(uint256)":"d78cfae8","isShipmentVerified(uint256)":"5d6a1b5d","shipments(uint256)":"2ac08a93","submitProof(uint256[2],uint256[2][2],uint256[2],uint256[3],string)":"30109a60","totalSubmitted()":"fedbdf30","verifier()":"2b7ac3f3"},"id":0}