{"abi":[{"type":"function","name":"verifyProof","inputs":[{"name":"_pA","type":"uint256[2]","internalType":"uint256[2]"},{"name":"_pB","type":"uint256[2][2]","internalType":"uint256[2][2]"},{"name":"_pC","type":"uint256[2]","internalType":"uint256[2]"},{"name":"_pubSignals","type":"uint256[3]","internalType":"uint256[3]"}],"outputs":[{"name":"","type":"bool","internalType":"bool"}],"stateMutability":"view"}],"bytecode":{"object":"0x608060405234801561000f575f80fd5b506106008061001d5f395ff3fe608060405234801561000f575f80fd5b5060043610610029575f3560e01c806311479fea1461002d575b5f80fd5b61004061003b366004610569565b610054565b604051901515815260200160405180910390f35b5f61050b565b7f30644e72e131a029b85045b68181585d2833e84879b9709143e1f593f00000018110610089575f805260205ff35b50565b5f60405183815284602082015285604082015260408160608360076107d05a03fa9150816100bc575f805260205ff35b825160408201526020830151606082015260408360808360066107d05a03fa915050806100eb575f805260205ff35b5050505050565b7f16b803479770744afb888ad1e98621f71637a604e2724b49b45a20094c0e87c185527f055e43a423ee5f37e02e07918532111d643d4d3c042e773a1aabb000f08405a860208601525f608086018661018e87357f1fa2a6570e389bb52be19cdf01029c13dca0ac5bb4d096ac508164dacdaa2fb07f2070871204d95addb5384a82910df7303823bebc459563c1a06ad58da4a83b0d8461008c565b6101de60208801357f0a38504524c477c44b7984ae8b9eee597de9bae2ca8fd2c4a8c721f4901aca137f2d025f51ce06bfbd35e2b89ee51dedc0266722cdf066acfd1a8996ff67bce9068461008c565b61022e60408801357f15f7e20aeb450a8a9baa9e6ef05f55b04d7ca1bd493fb0ad6d813a29124838337f120f63d13d76b4b2d2c9f49017ef6b54e236d5fb745f83acbcfac48096d7457d8461008c565b50823581527f30644e72e131a029b85045b68181585d97816a916871ca8d3c208c16d87cfd4760208401357f30644e72e131a029b85045b68181585d97816a916871ca8d3c208c16d87cfd4703066020820152833560408201526020840135606082015260408401356080820152606084013560a08201527f3026b581828d0584a87f72468a1b2798b3978ae064ec0d867415fb7d376383b060c08201527f064259ce7e6c68309bee243e7897fd7ff62f410e903468ea56259bc58c24caca60e08201527f26d285585942570cfafd5703edba21209834e09ba6f8286be0ac25b76653041f6101008201527f090689ed0357c7d87894faadd9e9dfb2eb02bb4b96eb99ed387aec35f0b422d26101208201527f0128656acd1643e6f5531ebbdfd4f37e8cefaa502c84fe66252fa5e2f38cbcb86101408201527f1fa1863a3754a445278d39b6190d27e5c6e652d5fd847fd644c1162ef947c1e06101608201525f87015161018082015260205f018701516101a08201527f198e9393920d483a7260bfb731fb5d25f1aa493335a9e71297e485b7aef312c26101c08201527f1800deef121f1e76426a00665e5c4479674322d4f75edadd46debd5cd992f6ed6101e08201527f090689d0585ff075ec9e99ad690c3395bc4b313370b38ef355acdadcd122975b6102008201527f12c85ea5db8c6deb4aab71808dcb408fe3d1e7690c43d37b4ce6cc0166fa7daa610220820152843561024082015260208501356102608201527f013330a79089683c7b66a3f2c892690be0f47833ed3f4f023d86a9823c7c52a16102808201527e5ddd1001d98ab417a0ebc7a003ff9cd323c77a8e7017e896a8358126d04b926102a08201527f15773a43402543f99d38c26289958368adfdfa746587e5a49ae27357e23821c36102c08201527f1046e79ce27938a880fff0ad154f409d941aaec322d5177af61215bb7201170d6102e08201526020816103008360086107d05a03fa9051169695505050505050565b60405161038081016040526105225f84013561005a565b61052f602084013561005a565b61053c604084013561005a565b610549818486888a6100f2565b9050805f5260205ff35b8060408101831015610563575f80fd5b92915050565b5f805f8061016080868803121561057e575f80fd5b6105888787610553565b945060c086018781111561059a575f80fd5b6040870194506105aa8882610553565b9350508681870111156105bb575f80fd5b5092959194509261010001915056fea2646970667358221220ba889388e25fce8d027846804c3ac8035a0fb0c577add73a5386de2cf03f347264736f6c63430008140033","linkReferences":{}},"methodIdentifiers":{"verifyProof(uint256[2],uint256[2][2],uint256[2],uint256[3])":"11479fea"},"id":1}